:100000000EC028C0ADC626C028C771C623C022C0F6
:1000100021C020C01FC01EC01DC01CC01BC0112499
:100020001FBECFE5D1E0DEBFCDBF10E0A0E6B0E05F
:10003000E2E2FFE002C005900D92A236B107D9F7C7
:1000400020E0A2E6B0E001C01D92AB3BB207E1F7B1
:1000500032D665C7D5CF813011F486E001C085E086
:100060008093850008956F7146131BC040918200F4
:10007000222351F021E030E001C0220F8A95EAF7F7
:10008000242B20938200089521E030E0B90102C0C2
:10009000660F771F8A95E2F7CB01809584238093C2
:1000A000820008950F93962F9F71491327C0607C9B
:1000B0004091850061110CC0222399F021E030E0CD
:1000C00001C0220F8A95EAF7242B2093850016C0E1
:1000D000603419F4013029F4EFCF603811F40230A4
:1000E00059F321E030E0B90102C0660F771F8A950D
:1000F000E2F7CB0180958423809385000F910895CA
:10010000EF92FF920F931F93CF93DF93C82FD62FB9
:10011000142F86E8E82E80E0F82E262F4C2FF701CA
:10012000608180E0A0DF2D2F4C2FF701618181E0FD
:100130009ADF012F2D2F4C2FF701628180E0B2DF73
:100140002D2F4C2FF701638181E0ACDF2D2F4C2F39
:10015000F701648182E0A6DF2D2F4C2F609176009D
:1001600082E0DF91CF911F910F91FF90EF907BCFB5
:10017000DF92EF92FF920F931F93CF93DF93182F8D
:10018000E62E042F813049F4C0917400CC2309F489
:1001900056C084E0F82ED1E029C0823049F4C091E5
:1001A0007D00CC2309F44BC048E0F42ED5E01EC0FE
:1001B000833049F4C0917700CC2309F440C03CE07F
:1001C000F32ED9E013C0843041F4C0918100CC23D8
:1001D000B1F124E1F22EDDE009C0853081F5C09156
:1001E0007F00CC2361F19CE1F92ED5E178D68823FC
:1001F00029F0013011F001E001C002E0DD24D394C8
:10020000FD1658F08C2F8D2129F0402F6D2D6E2179
:100210008D2F76DFDD0CDF5FF3CF113081F480911D
:10022000740084FF0CC06E2D6071402F80E0DF9160
:10023000CF911F910F91FF90EF90DF9061CFDF91F1
:10024000CF911F910F91FF90EF90DF9008951F9332
:10025000CF93DF93811103C0C0917A0009C0813030
:1002600019F4C0917B0004C0823031F5C0917C004C
:10027000162FD82F8C2F8F70813061F480918200DF
:1002800082FD05C080FD03C063D481110BC0C09105
:10029000780008C0C1FF06C08091820082FF02C0C2
:1002A00060E005C0C295CF70C117D0F361E08D2F1B
:1002B000DF91CF911F91FFC5DF91CF911F910895DD
:1002C000CF92DF92EF92FF920F931F93CF93DF9322
:1002D000809162008F5F803118F48093620002C0C9
:1002E0001092620088E8C82E80E0D82EE12CF12C14
:1002F000D1E001E010E0CE2DF60181916F01982F41
:100300009F719F3129F5982F907C19F420918500D9
:100310000DC087FF06C019D420918500823071F48A
:1003200005C013D420918500813041F4C8010C2E02
:1003300001C0880F0A94EAF7822B08C0C8010C2E6E
:1003400001C0880F0A94EAF7809582238093850084
:10035000809185008D2331F48091820082FD02C05E
:1003600081FF05C0609162008C2F71DF03C060E0E7
:100370008C2FA1D5DD0FFFEFEF1AFF0A83E0E816FF
:10038000F10409F0B8CFDF91CF911F910F91FF9049
:10039000EF90DF90CF90089590E080509040A5C5F9
:1003A0008F3F910509F008F4F7CF80E00895E199B7
:1003B000FECF90E080509040A0C58530A8F44091D9
:1003C0007400811103C0842F80610BC0815021E033
:1003D00030E0B90102C0660F771F8A95E2F7CB01C2
:1003E000842B809374000895893080F4855021E037
:1003F00030E0A90102C0440F551F8A95E2F7CA01F7
:1004000090917D00892B80937D0008958D3080F43C
:10041000895021E030E0B90102C0660F771F8A954C
:10042000E2F7CB0190917700892B809377000895B4
:10043000853180F48D5021E030E0A90102C0440FE5
:10044000551F8A95E2F7CA0190918100892B80930C
:10045000810008958D3178F4845121E030E0B901B4
:1004600002C0660F771F8A95E2F7CB0190917F005B
:10047000892B80937F000895EF92FF920F931F9333
:10048000CF93E199FECF80E090E02FD58F3F31F4FC
:10049000CF911F910F91FF90EF903CC081E090E0D1
:1004A00024D58093750081E190E01FD58093800072
:1004B00082E190E01AD58093840083E190E015D525
:1004C000809383008DE190E010D580937E0086E8D4
:1004D000E82E80E0F82E08E710E0C1E28C2F5CDF08
:1004E000F70181937F018F7168DF8FE48C0F54DFF8
:1004F000F80181938F01CF5FC63281F78DE290E0E2
:10050000F4D4809376008F71CF911F910F91FF905B
:10051000EF9053CF63E081E04ADF61E087E047DF9F
:100520006DE088E044DF60EC81E141DF60E082E182
:100530003EDF60E083E13BDF66E08DE138DF64E0D1
:1005400081E235DF6EE182E232DF60E483E22FDFB9
:1005500060E884E22CDF63E085E229DF66E08DE27B
:1005600026DF60E480E723DF61EF82E720DF62EFD0
:1005700083E71DDF60EF84E71ADF60E080E017DFCC
:100580007BCF0F931F93CF93DF938F3F910511F094
:1005900008F065C0162FEC018F50823048F08FE0D4
:1005A00090E0A3D4082F80E190E09FD4081357C0B7
:1005B000C331D10509F43FC0A8F4C830D10579F1A1
:1005C00040F4C130D10541F1C730D10509F447C02D
:1005D0003FC0C131D10561F1C231D105C9F51093D8
:1005E000840036C0C632D10548F4C132D10530F599
:1005F000CD31D10569F510937E002AC0CD32D105E9
:1006000011F130F1CE0180579109059708F5FE01EF
:10061000E85FFF4F10831CC01093750019C01D3098
:1006200011F01830E1F4DF91CF911F910F9172CF4B
:10063000109380000DC0109383000AC0FE01EB5997
:10064000FF4F108302C010937600812F8F71B5DEAB
:10065000612F8C2FDF91CF911F910F91A8CEDF9149
:10066000CF911F910F910895FF920F931F93CF93F6
:10067000DF938C01F62E862F8770C1E0D0E001C099
:10068000CC0F8A95EAF7C8018BDEF3FE03C06C2F0E
:10069000682B03C0C0956C2F6823C801DF91CF91F0
:1006A0001F910F91FF906DCF88B38E6088BB81E062
:1006B00080938D0080936A00089510928B001092B1
:1006C000A200089590918B00983040F4E92FF0E05B
:1006D000ED55FF4F80839F5F90938B000895E3EA71
:1006E000F0E0AAE9B0E081918D9380E0EB3AF80761
:1006F000D1F7089581E08093A20008958091A2002F
:10070000882319F01092A20081E0089520919A00A8
:1007100090918E0060919B0080919C0029135DC098
:1007200090918F00691359C090919000891355C022
:1007300022FD1FC08091690090E00197880F991FEA
:10074000880F991F322F3370830F911D019623FF5D
:1007500004C017DF809165002DC022DE80939900D0
:100760008091990090918F0098133FC0809165000F
:1007700030C0822F8770853041F48091650080FD04
:1007800034C060936900816025C0843019F48DE124
:1007900090E009C0863019F487E090E004C087300B
:1007A00021F588E090E023FF07C0EBDE8091650033
:1007B00082FD1BC084600EC0F3DD809399008091A0
:1007C000990090918F00981310C08091650081FD71
:1007D0000CC082608093650067CF20938E00609389
:1007E0008F008093900010926A00089520919A00E3
:1007F00030918E0080919B0060919C0090919D00B3
:1008000023132AC030918F00831326C030919000AB
:10081000631322C03091910093131EC090916A001F
:10082000911124C0322F337090E0830F911D0196F7
:100830002C70283029F02C3069F02430B9F404C031
:1008400064FF14C011DF07C0ABDD909190008913E5
:100850000DC001C096DE28CF20938E0080938F00BC
:10086000609390009093910010926A000895660F33
:100870006C7119F410926300089581E08093630015
:100880000895CF93DF9390918B0080919A009330DD
:10089000E9F481110EC090919B00911117C09091C5
:1008A0009C00911113C08EE180938C001092650022
:1008B000DAC08F3F59F490919B00911107C090913D
:1008C0009C009F3F19F410928C00CDC020918300B2
:1008D000222389F087FD0FC090919B00907E903E6F
:1008E00051F0882309F4BFC030E090E028173907A1
:1008F00009F0B9C00AC087FDA2C090917E0095FDA5
:100900009EC0909175008913AEC081E090E0EC012B
:10091000C656DF4F6881262F207E203809F45CC040
:1009200038F42034A9F1203699F1203259F09BC0D7
:10093000203C09F460C0203E09F46BC0203A09F065
:1009400092C04FC06F716F3109F08DC09981892FAE
:100950008F778093630020916100821313C08FEF23
:10096000809361001092680080917E0097FF04C020
:1009700080FF04C082E003C080FFFCCF81E0809351
:10098000640071C08093610081E0809368006BC057
:10099000FC01ED55FF4F808190916000891317C0D5
:1009A0009FEF909360001092670090917E0065FF2A
:1009B00004C090FF04C092E003C090FFFCCF91E020
:1009C00090936400682F8091640051DF05C080938C
:1009D000600081E08093670040916400688181E05D
:1009E00005C04091640064FF04C082E0DF91CF91B4
:1009F000BFCB83E0FBCF6E3D29F440916400698159
:100A000084E0F4CF6F3D79F540916400698185E021
:100A1000EDCF63FF28C02981862F837090E0982F47
:100A20008827820F911D62FF05C06A810196DF91C0
:100A3000CF91A7CD6A810196DF91CF9115CE982FE6
:100A4000907C903C81F490917E0095FF0CC0909139
:100A50008000891308C090919B00809184009813B6
:100A600002C082E053CFDF91CF91089580918B0037
:100A7000823011F134DE80918C008823E1F0809186
:100A80009A00982F90779037B1F49EE190938C0064
:100A900090918B00933019F0943061F008958F3F5E
:100AA00041F480919B00811104C080919C008F3F94
:100AB00019F02CCE9BCEE5CE089580918C00882332
:100AC00019F0815080938C0080918D00882371F003
:100AD0008F5F8D3018F480938D0008C010928D00C8
:100AE00081E080936A0088B3817F88BB8091680031
:100AF000882351F08F5F80936800843628F08FEF51
:100B0000809361001092680080916700882351F003
:100B10008F5F80936700843628F08FEF80936000AA
:100B20001092670080916600882371F08F5F809338
:100B30006600843648F08FEF80939600809397008C
:100B40008093980010926600089580916400089543
:100B5000809163000895CF939C012C523109253276
:100B6000310588F481E08093AB008091B6008F5FFF
:100B70008093B600E091B700F0E0E355FF4F80812D
:100B8000880F8F5F20C08A559109873C9D4420F5CE
:100B90001092AB008091B6008E3060F081E08093BF
:100BA000B5001092AD001092B7001092AC001092F8
:100BB000B6007FC01092B600E091B700F0E0E355B8
:100BC000FF4F8081880F808380916C008823A1F083
:100BD000815080936C0010C080916C00883208F0C6
:100BE00068C091E0980F983219F090936C0061C042
:100BF000855F80936C005DC08091B7008F3F09F4E2
:100C000058C08091B50081112FC08091AB00813018
:100C100009F04CC08091AC00811118C04EDDC0E0DD
:100C20008091B700C81740F4EC2FF0E0E355FF4F78
:100C3000808148DDCF5FF4CF5DDD8FEF8093B7001B
:100C400080916B00882381F081500CC080916B00F3
:100C5000883260F591E0980F983219F090936B000C
:100C600025C0855F80936B008091B5008F5F809376
:100C7000B5008930F1F48091B700811107C09091DF
:100C8000AD009F3F19F49093B70013C0E82FF0E038
:100C9000E355FF4F2091AC00908192279093AC00D8
:100CA0008F5F8093B7001092B50003C081E08093FE
:100CB000B500CF91089539D0F7D0ECD0DDDB789432
:100CC0008AD0009709F047DF19DD8111CFDED8D037
:100CD0008823B1F3F2DEF4DA92D080917E0082FFB5
:100CE000EFCF84D0882361F381D0B5D9E9CF1F92AB
:100CF0000F920FB60F9211248F939F939FB78091FD
:100D000073008F5F809373008F3F39F4809172007E
:100D1000883019F08F5F809372009FBF9F918F91F1
:100D20000F900FBE0F901F901895B898C0988BB772
:100D300080628BBFA89A1ABC82E083BF12BE89B7BB
:100D4000826089BF089512BE10927300089522B781
:100D50008091730090E0982F8827820F911D08954D
:100D60001F920F920FB60F9211242F933F934F9320
:100D70005F936F937F938F939F93AF93BF93CF9323
:100D8000EF93FF93CFB780917200883020F081E01D
:100D9000809371000DC0B09B06C0D5DF1092B900E2
:100DA0001092B80005C0D3DF9093B9008093B800CB
:100DB000CFBFFF91EF91CF91BF91AF919F918F9155
:100DC0007F916F915F914F913F912F910F900FBE47
:100DD0000F901F9018958091B8009091B9000097DE
:100DE00021F01092B9001092B8000895809172001D
:100DF000883018F080916F00089580E00895809108
:100E000070008F5F80937000B09B08C0459B06C048
:100E100090916E009F5F90936E0005C090916D0061
:100E20009F5F90936D008F31B8F090916E0080912C
:100E30006D00891728F4981B9E3040F082E004C0B2
:100E4000891B8A3018F081E080936F001092700047
:100E500010926E0010926D0008951F920F920FB6BF
:100E60000F9211248F938091BA00843018F48F5F11
:100E70008093BA008F910F900FBE0F901F9018951E
:100E80008091BA00843020F01092BA0081E0089579
:100E900080E008951CBC84E480BF89B78F7D89BF42
:100EA00089B7846089BF089587B38E6087BBBC987B
:100EB000C198C49A0895813021F038F0823019F039
:100EC000089584E003C088E001C082E098B36623FF
:100ED00011F0892B02C08095892388BB089586B3C1
:100EE0008295817091E089270895E199FECF1FBA1C
:100EF0008EBBE09A99278DB30895262FE199FECFF6
:100F00001FBA8EBBE09A81500DB2021639F01CBA9E
:100F10002DBB0FB6F894E29AE19A0FBE0895F894AB
:020F2000FFCF01
:020F2200FFFFCF
:00000001FF
