:1000000082C09CC045C89AC0C9C809C897C096C0DC
:1000100095C094C093C092C091C090C08FC0AFC330
:10002000D5C3D4C3D3C3D2C3D1C3D3C3ABC3CEC34D
:10003000CDC3CCC3CBC3CAC3C9C3C8C3C7C3A8C37A
:10004000AAC3ACC3C3C3C2C3C1C3C0C3BFC3BEC3BF
:10005000BDC3BCC3BBC3A5C3B9C3B8C3B7C3A4C3E3
:10006000A3C3A2C3A1C3A0C3B1C3B0C3AFC3AEC334
:10007000ADC3ACC3ABC3A0C3A9C3A8C3A7C3A6C326
:10008000A5C3A4C3A3C3A2C3A1C3A0C39FC39EC34C
:100090009DC39CC39BC39AC399C398C397C396C37C
:1000A00095C394C393C392C391C390C38FC38EC3AC
:1000B0008DC38CC38BC38AC389C388C387C386C3DC
:1000C00085C384C383C382C381C380C37FC37EC30C
:1000D0007DC37CC37BC37AC379C378C377C376C33C
:1000E00075C374C373C372C371C370C36FC36EC36C
:1000F0006DC36CC36BC36AC369C368C363C362C3A4
:1001000061C360C35FC311241FBECFE5D1E0DEBF72
:10011000CDBF10E0A0E6B0E0E8E6F2E102C0059055
:100120000D92A236B107D9F720E0A2E6B0E001C0F7
:100130001D92AB3BB207E1F756D794C861CF81302F
:1001400021F486E080938500089585E08093850002
:1001500008956F71461320C0222379F021E030E02A
:10016000A90102C0440F551F8A95E2F7CA01909178
:100170008200892B80938200089521E030E0A9015C
:1001800002C0440F551F8A95E2F7CA0180959091ED
:10019000820089238093820008950F93962F9F7188
:1001A000491338C0607C29F491E0211113C090E01C
:1001B00011C0603439F40130F1F491E021110AC02A
:1001C00090E008C06038B9F40230A9F491E0211140
:1001D00001C090E0992379F021E030E0A90102C04C
:1001E000440F551F8A95E2F7CA0190918500892B2B
:1001F000809385000FC021E030E0A90102C0440FC8
:10020000551F8A95E2F7CA01809590918500892350
:10021000809385000F910895EF92FF920F931F93A3
:10022000CF93DF93C82FD62F142F0F2EF6E8EF2E83
:10023000F0E0FF2EF02D262F482FF701608180E09F
:1002400088DF2D2F4C2FF701618181E082DF012FA4
:100250002D2F4C2FF701628180E09FDF2D2F4C2F37
:10026000F701638181E099DF2D2F4C2FF701648125
:1002700082E093DF2D2F4C2F6091760082E069DFC2
:10028000DF91CF911F910F91FF90EF900895DF9232
:10029000EF92FF920F931F93CF93DF93F82ED62EFA
:1002A000E42E81E0F81208C010917400112309F4C3
:1002B00056C004E0C1E04FC082E0F81208C01091BF
:1002C0007D00112309F44BC008E0C5E044C083E081
:1002D000F81208C010917700112309F440C00CE017
:1002E000C9E039C084E0F81207C0109181001123E1
:1002F000B1F104E1CDE02FC085E0F81230C01091DB
:100300007F00112361F10CE1C5E125C081E0E81611
:1003100019F0EE24E39403C06894EE24E1F80C177E
:1003200068F0D1E0812F8D2329F04E2D6D2D6D23A6
:100330008C2F72DFDD0FCF5F0C17A0F781E0F81272
:100340000EC08091740084FF0AC06D2D60714E2D27
:1003500080E062DF04C066D78111D8CFE2CFDF91A1
:10036000CF911F910F91FF90EF90DF9008951F9311
:10037000CF93DF93811103C0D0917A0009C08130FF
:1003800019F4D0917B0004C08230D9F5D0917C0063
:10039000162FC82F8D2F8F708130D9F48091820055
:1003A00082FF05C0D0917800D295DF7021C080FF18
:1003B00005C0D0917800D295DF701AC052D588233D
:1003C00019F0D295DF7014C0D0917800D295DF700B
:1003D0000FC0D1FF0BC08091820082FF04C060E09B
:1003E0008C2F0AD70EC0D295DF7002C0D295DF7075
:1003F000D11720F460E08C2FFFD603C061E08C2F72
:10040000FBD6DF91CF911F910895BF92CF92DF92DB
:10041000EF92FF920F931F93CF93DF93809162002F
:100420008F5F803108F47EC0109262007DC00C2F77
:10043000F70181917F01982F9F719F3109F04FC083
:10044000982F907C69F4C6010C2E02C0880F991F6A
:100450000A94E2F790918500892B809385003FC034
:100460008823F4F4FBD4823069F4C6010C2E02C058
:10047000880F991F0A94E2F790918500892B809349
:1004800085002DC0C6010C2E02C0880F991F0A944A
:10049000E2F78095909185008923809385001FC0A5
:1004A00086FF1DC0DBD4813069F4C6010C2E02C06A
:1004B000880F991F0A94E2F790918500892B809309
:1004C00085000DC0C6010C2E02C0880F991F0A942A
:1004D000E2F7809590918500892380938500809133
:1004E0008500812329F060916200802F40DF13C0D6
:1004F0008091820082FF05C060916200802F37DF0B
:100500000AC081FF05C060916200802F30DF03C008
:1005100060E0802F71D6110F2196C330D10509F00C
:1005200086CF0FC0809362000F2EF8E8EF2EF0E028
:10053000FF2EF02DC0E0D0E011E0CC24C394D12CEC
:1005400076CFDF91CF911F910F91FF90EF90DF90C9
:10055000CF90BF90089590E08050904069D6089564
:100560008F3F910509F010F4F6DF089580E00895BB
:10057000E199FECF90E08050904062D6089585309A
:10058000C0F4811106C08091740080618093740072
:100590000895815021E030E0A90102C0440F551FA9
:1005A0008A95E2F7CA0190917400892B80937400B8
:1005B0000895893080F4855021E030E0A90102C01F
:1005C000440F551F8A95E2F7CA0190917D00892B4F
:1005D00080937D0008958D3080F4895021E030E0D3
:1005E000A90102C0440F551F8A95E2F7CA019091F4
:1005F0007700892B809377000895853180F48D50A2
:1006000021E030E0A90102C0440F551F8A95E2F7AE
:10061000CA0190918100892B8093810008958D31CA
:1006200078F4845121E030E0A90102C0440F551F45
:100630008A95E2F7CA0190917F00892B80937F0011
:100640000895EF92FF920F931F93CF93E199FECFFE
:1006500080E081DF8F3F11F43AD033C081E07BDF4F
:100660008093750081E177DF8093800082E173DF02
:100670008093840083E16FDF809383008DE16BDFE3
:1006800080937E000F2EF6E8EF2EF0E0FF2EF02D87
:1006900008E710E0C1E28C2F5EDFF70181937F0154
:1006A0008F716DDF8FE48C0F56DFF80181938F011E
:1006B000CF5FC63281F78DE24EDF809376008F7177
:1006C0005EDFCF911F910F91FF90EF90089563E04F
:1006D00081E04EDF61E087E04BDF6DE088E048DFDE
:1006E00060EC81E145DF60E082E142DF60E083E1D0
:1006F0003FDF66E08DE13CDF64E081E239DF6EE1FF
:1007000082E236DF60E483E233DF60E884E230DFF8
:1007100063E085E22DDF66E08DE22ADF60E480E7BA
:1007200027DF61EF82E724DF62EF83E721DF60EFFD
:1007300084E71EDF60E080E01BDF83DF08950F9316
:100740001F93CF93DF938F3F910511F008F041C0C5
:10075000C62F8C0181EF800F823038F08FE0FBDEF6
:10076000D82F80E1F8DED81334C0C8019927FC01E6
:100770003197E437F10550F5E15FFF4F0994C093DD
:10078000750024C0CD3011F0C83019F5A0DF21C0AC
:10079000C09380001BC0C093840018C0C093830026
:1007A00015C0C0937E0012C0FC01EB59FF4FC083FF
:1007B0008C2F8F71E4DE0AC0C09376008C2F8F716E
:1007C000DEDE04C0FC01E85FFF4FC0836C2F802F8A
:1007D000CFDEDF91CF911F910F910895FF920F937C
:1007E0001F93CF93DF938C01F62E862F8770C1E085
:1007F000D0E002C0CC0FDD1F8A95E2F7C801B0DE61
:10080000F3FE03C06C2F682B03C0C0956C2F6823C8
:10081000C80195DFDF91CF911F910F91FF9008954F
:1008200088B38E6088BB81E080938D0080936A00DE
:10083000089510928B001092A200089590918B0061
:10084000983040F4E92FF0E0ED55FF4F80839F5F33
:1008500090938B000895E3EAF0E0AAE9B0E02BEA78
:1008600030E081918D93E217F307D9F7089581E085
:100870008093A20008958091A200882319F010921D
:10088000A20081E0089590919A0080918E009813C3
:10089000B4C060919B0080918F006813AEC020911E
:1008A0009C00809190002813A8C092FD2BC020913D
:1008B000690030E021503109220F331F220F331F0E
:1008C000892F8370280F311D2F5F3F4F93FF09C081
:1008D000C90135DF80916500846080936500A0DFE9
:1008E0000895C9013DDE809399008091990090910F
:1008F0008F00981390C0809165008260809365009E
:100900008FDF0895892F8770853059F480916500B5
:1009100080FD81C06093690081608093650080DF05
:100920000895843011F593FF0CC08DE190E007DF4E
:100930008091650082FD6FC084608093650070DFE8
:1009400008958DE190E00CDE8093990080919900EC
:1009500090918F0098135FC08091650081FD5BC00E
:100960008260809365005CDF0895863011F593FF07
:100970000CC087E090E0E3DE8091650082FD4BC013
:100980008460809365004CDF089587E090E0E8DDA7
:10099000809399008091990090918F0098133BC0AB
:1009A0008091650081FD37C082608093650038DFEB
:1009B0000895873081F593FF0CC088E090E0BFDE9A
:1009C0008091650082FD27C084608093650028DFE8
:1009D000089588E090E0C4DD8093990080919900AB
:1009E00090918F00981317C08091650081FD13C00E
:1009F00082608093650014DF0895EEE8F0E0908354
:100A0000AAE9B0E011968C911197818312968C918E
:100A1000828310926A00089590919A0080918E00CE
:100A2000981337C020919B0080918F00281331C00C
:100A300060919C008091900068132BC030919D00C4
:100A400080919100381325C080916A00811133C0D4
:100A5000892F837030E0280F311D2F5F3F4F9C702E
:100A6000983029F09C3089F0943029F506C064FF55
:100A700022C0C901B3DED4DE0895C90171DD9091B1
:100A80009000891318C0CCDE0895C90158DEC8DE75
:100A90000895EEE8F0E09083AAE9B0E011968C9119
:100AA0001197818312968C911297828313968C9161
:100AB000838310926A0008956F70660F19F4109284
:100AC00063000895623019F410926300089581E084
:100AD000809363000895CF93DF9380918B008330E0
:100AE000F9F480919A0081110EC080919B008111D0
:100AF0002CC180919C00811128C18EE180938C00D3
:100B0000109265002DC18F3F59F480919B00811197
:100B100007C080919C008F3F19F410928C0020C177
:100B200020918300222309F402C180919A00882336
:100B30000CF413C190919B00907E903E09F0F4C09C
:100B400009C130E08F7790E02817390709F008C114
:100B50001FC090917E0095FDF0C090917500981394
:100B6000FFC0C1E016C0982F907C903C09F0F8C0FF
:100B700090917E0095FFF4C0909180009813F0C092
:100B800090919B00809184009813EAC0C2E001C05C
:100B9000C1E0D0E0FE01E656FF4F6081862F807EE7
:100BA000803809F478C048F4803409F444C08036B1
:100BB00009F441C0803259F0D3C0803C09F47FC0B1
:100BC000803E09F491C0803A09F0CAC06CC06F71D0
:100BD0006F3109F0C5C0C656DF4F9981892F8F77D5
:100BE000809363002091610082131FC08FEF809378
:100BF000610010926800992364F480917E0080FF68
:100C000004C082E080936400ABC081E08093640004
:100C1000A7C080917E0080FF04C081E080936400C3
:100C20009FC082E0809364009BC08093610081E05C
:100C30008093680095C0FE01ED55FF4F8081909133
:100C40006000891323C09FEF9093600010926700AB
:100C500065FF0CC090917E0090FF04C092E09093DD
:100C600064000FC091E0909364000BC090917E00EF
:100C700090FF04C091E09093640003C092E09093D1
:100C80006400682F8091640017DF05C080936000C6
:100C900081E080936700C656DF4F40916400688111
:100CA00081E0F5DA5DC064FF05C04091640082E038
:100CB000EEDA56C04091640083E0E9DA51C06E3D3F
:100CC00041F4C656DF4F40916400698184E0DFDA69
:100CD00047C06F3D09F044C0C656DF4F40916400E5
:100CE000698185E0D4DA3CC063FF3AC062FF0EC080
:100CF000C656DF4F6370862F90E0982F8827298192
:100D0000820F911D6A8101961ADD2AC0C656DF4FF7
:100D10006370862F90E0982F88272981820F911D7C
:100D20006A8101965BDD1CC081110BCF19C08091D7
:100D30009A0088230CF00DCF16CF982F907C903C12
:100D400079F41ACF80919A00F5CE20918300222366
:100D500071F3F8CF80919A00FCCE80919A0003CF76
:100D6000DF91CF91089580918B00823079F173DD0E
:100D700080918C00882349F180919A00982F907778
:100D8000903719F59EE190938C0090918B009330F1
:100D900019F09430C1F00895811109C080919B0031
:100DA00081110FC080919C0081110BC008958F3F6D
:100DB00041F480919B00811104C080919C008F3F81
:100DC00029F061DD089528DE089585DE089580917B
:100DD0008C00882319F0815080938C0080918D00C5
:100DE000882371F08F5F8D3018F480938D0008C0D8
:100DF00010928D0081E080936A0088B3817F88BB68
:100E000080916800882351F08F5F8093680084365A
:100E100028F08FEF80936100109268008091670046
:100E2000882351F08F5F80936700843628F08FEF1E
:100E3000809360001092670080916600882369F0BB
:100E40008F5F80936600843640F0E6E9F0E08FEF34
:100E5000808381838283109266000895809164006C
:100E60000895809163000895CF939C012C5231091D
:100E700025323105C8F481E08093AB008091B60043
:100E80008F5F8093B600E091B700F0E0E355FF4F2D
:100E90008081880F8F5F808380916C008823E9F1C7
:100EA000815080936C0039C08A559109873C9D44DC
:100EB00020F51092AB008091B6008E3060F081E09A
:100EC0008093B5001092AD001092B7001092AC0064
:100ED0001092B60086C01092B600E091B700F0E024
:100EE000E355FF4F8081880F808380916C008823B9
:100EF000A1F0815080936C0010C080916C0088320A
:100F000008F06FC091E0980F983219F090936C0040
:100F100068C0855F80936C0064C08091B7008F3F8C
:100F200009F45FC08091B500811135C08091AB009C
:100F3000813009F053C08091AC0081111DC079DC73
:100F40008091B700882361F0C0E0EC2FF0E0E3551A
:100F5000FF4F808173DCCF5F8091B700C817A8F383
:100F600086DC8FEF8093B70080916B00882399F027
:100F7000815080936B000FC080916B00883270F5B8
:100F800091E0980F983219F090936B0027C0855F1D
:100F900080936B0023C08091B5008F5F8093B50074
:100FA0008930F9F48091B700811108C09091AD00AB
:100FB0009F3F21F48FEF8093B70013C0E82FF0E03C
:100FC000E355FF4F2091AC00908192279093AC00A5
:100FD0008F5F8093B7001092B50003C081E08093CB
:100FE000B500CF91089539D000D1F5D02ADB78949F
:100FF0008BD0009709F038DF3EDC8111B4DEE1D000
:101000008823B1F3E4DE01DA93D080917E0082FF81
:10101000EFCF85D0882361F382D091D8E9CF1F929A
:101020000F920FB60F9211248F939F939FB78091C9
:1010300073008F5F809373008F3F39F4809172004B
:10104000883019F08F5F809372009FBF9F918F91BE
:101050000F900FBE0F901F901895B898C0988BB73F
:1010600080628BBFA89A1ABC82E083BF12BE89B788
:10107000826089BF089512BE10927300089522B74E
:101080008091730090E0982F8827820F911D08951A
:101090001F920F920FB60F9211242F933F934F93ED
:1010A0005F936F937F938F939F93AF93BF93CF93F0
:1010B000EF93FF93CFB780917200883028F081E0E2
:1010C00080937100CFBF0EC0B09B06C0D4DF1092DA
:1010D000B9001092B80005C0D2DF9093B900809398
:1010E000B800CFBFFF91EF91CF91BF91AF919F918A
:1010F0008F917F916F915F914F913F912F910F90C1
:101100000FBE0F901F9018958091B8009091B90074
:10111000009721F01092B9001092B80008958091C4
:101120007200883018F080916F00089580E0089573
:10113000809170008F5F80937000B09B0EC0459BC4
:1011400006C090916E009F5F90936E000BC09091CF
:101150006D009F5F90936D0005C090916D009F5F43
:1011600090936D008F31C8F090916E0080916D006A
:10117000891738F4981B9E3050F082E080936F00FE
:1011800006C0891B8A3018F081E080936F001092AE
:10119000700010926E0010926D0008951F920F92D1
:1011A0000FB60F9211248F938091BA00843018F4F7
:1011B0008F5F8093BA008F910F900FBE0F901F909A
:1011C00018958091BA00843020F01092BA0081E026
:1011D000089580E008951CBC84E480BF89B78F7DAA
:1011E00089BF89B7846089BF089587B38E6087BB44
:1011F000BC98C198C49A0895813021F038F08230AB
:1012000019F0089584E003C088E001C082E06623FD
:1012100021F098B3892B88BB089598B380958923D2
:1012200088BB089586B38295817091E089270895DF
:10123000E199FECF1FBA8EBBE09A99278DB308952E
:10124000262FE199FECF1FBA8EBBE09A81500DB2D6
:10125000021639F01CBA2DBB0FB6F894E29AE19A47
:081260000FBE0895F894FFCFC2
:02126800FFFF86
:00000001FF
